:020000040800F2
:1000000060060020B1010008B9010008BB0100082A
:10001000BD010008BF010008C10100080000000088
:10002000000000000000000000000000C301000804
:10003000C501000800000000C7010008C901000850
:10004000CB010008CB010008CB010008CB01000860
:10005000CB010008CB010008CB010008CB01000850
:10006000CB010008CB010008CB010008CB01000840
:10007000CB010008CB010008CB010008CB01000830
:10008000CB010008CB010008CB010008CB01000820
:10009000CB010008CB010008CB010008CB01000810
:1000A000CB010008CB010008CB010008CB01000800
:1000B000CB010008CB010008CB010008CB010008F0
:1000C000CB010008CB010008CB010008CB010008E0
:1000D000CB010008CB010008CB010008CB010008D0
:1000E000CB010008CB010008CB010008CB010008C0
:1000F000CB010008CB010008CB010008CB010008B0
:10010000CB010008CB010008CB010008CB0100089F
:10011000CB010008CB010008CB010008CB0100088F
:10012000CB010008CB010008CB010008CB0100087F
:1001300000F002F800F02CF80AA090E8000C8244CD
:100140008344AAF10107DA4501D100F021F8AFF2AA
:10015000090EBAE80F0013F0010F18BFFB1A43F0A5
:10016000010318477C0300008C03000000230024D7
:1001700000250026103A28BF78C1FBD8520728BFB7
:1001800030C148BF0B6070471FB51FBD10B510BD13
:1001900000F031F81146FFF7F7FF00F063F900F0C7
:1001A0004FF803B4FFF7F2FF03BC00F057F800006C
:1001B0000948804709480047FEE7FEE7FEE7FEE7FB
:1001C000FEE7FEE7FEE7FEE7FEE7FEE70448054937
:1001D000054A064B704700003D0300083101000846
:1001E0006000002060060020600200206002002005
:1001F000704770477047754600F02CF8AE46050012
:100200006946534620F00700854618B020B5FFF731
:10021000DDFFBDE820404FF000064FF000074FF033
:1002200000084FF0000B21F00701AC46ACE8C00914
:10023000ACE8C009ACE8C009ACE8C0098D4670471D
:1002400010B50446AFF300802046BDE81040FFF72C
:10025000A8BF000000487047000000200149182096
:10026000ABBEFEE72600020070472DE9F001CB7817
:10027000002203F00F0C13F0100F1CBF8B7843EA21
:100280000C0C0B784FF00F0613F0FF0F4FF0010529
:1002900018BF046819D00F8805FA02F31F409F4267
:1002A0000FD1970006FA07F824EA08040CFA07F7BA
:1002B0003C43CF78282F08BF436102D0482F08BFA6
:1002C0000361521C082AE6D304600A88FF2A87BF0C
:1002D00044680022BDE8F001704702F108030F886E
:1002E00005FA03F31F409F420FD1970006FA07F863
:1002F00024EA08040CFA07F73C43CF78282F08BFFC
:100300004361CF78482F08BF0361521C082AE4D309
:100310004460BDE8F0017047002A14BF01614161EB
:1003200070470000044A0029916914BF084321EA7C
:10033000000090617047000000100240374882B012
:10034000016841F0010101604168354A1140416096
:10035000016821F4102121F080710160016821F40D
:1003600080210160416821F4FE0141604FF41F01CA
:100370008160002201920092016841F480310160A5
:10038000016801F4003100910199491C0191009923
:1003900019B90199B1F5A06FF2D1016811F4003FCC
:1003A00008BF009233D0012100911E490A6842F033
:1003B00010020A600A6822F007020A600A6842F026
:1003C00002020A604168416041684160416841F44D
:1003D00080614160416821F47C114160416841F4D1
:1003E000E8114160016841F080710160016811F01D
:1003F000007FFBD0416821F003014160416841F07A
:1004000002014160416801F00C010829FAD1064956
:100410004FF00060086002B070470000001002401A
:100420000000FFF80020024008ED00E030B4421E5A
:100430003CBF30BC704700244FF0050C4FF0E0206B
:10044000074B042543618461C0F810C0016911F4B1
:10045000803FFBD00561521EF4D230BC70470000D3
:100460004019010082B001210820FFF75BFF012144
:100470004020FFF757FF10208DF803002020ADF833
:1004800000000120144D8DF8020069462846FFF750
:10049000ECFE124C69462046FFF7E7FE01222021C0
:1004A0002846FFF739FF4FF4FA70FFF7BFFF00222D
:1004B00020212846FFF730FF012220212046FFF7A8
:1004C0002BFF4FF4FA70FFF7B1FF002220212046E6
:1004D000FFF722FFE2E70000000C01400018014096
:1004E000F004000800000020600600006C01000815
:04000005080001B13D
:00000001FF
